{
  "contractName": "Payment",
  "abi": [
    {
      "constant": true,
      "inputs": [],
      "name": "remarks",
      "outputs": [
        {
          "name": "",
          "type": "string"
        }
      ],
      "payable": false,
      "stateMutability": "view",
      "type": "function",
      "signature": "0x2f9c2ae9"
    },
    {
      "constant": true,
      "inputs": [],
      "name": "balance",
      "outputs": [
        {
          "name": "",
          "type": "uint256"
        }
      ],
      "payable": false,
      "stateMutability": "view",
      "type": "function",
      "signature": "0xb69ef8a8"
    },
    {
      "inputs": [],
      "payable": false,
      "stateMutability": "nonpayable",
      "type": "constructor",
      "signature": "constructor"
    },
    {
      "anonymous": false,
      "inputs": [
        {
          "indexed": false,
          "name": "_transferTo",
          "type": "address"
        },
        {
          "indexed": false,
          "name": "_transferFrom",
          "type": "address"
        },
        {
          "indexed": false,
          "name": "amount",
          "type": "uint256"
        }
      ],
      "name": "TransferFund",
      "type": "event",
      "signature": "0x41f7a8a1a70f43ecf6769f65a9933ba3370058d8e3422511a890553ba75ff3e8"
    },
    {
      "constant": false,
      "inputs": [
        {
          "name": "_transferTo",
          "type": "address"
        }
      ],
      "name": "transferFund",
      "outputs": [
        {
          "name": "",
          "type": "bool"
        }
      ],
      "payable": true,
      "stateMutability": "payable",
      "type": "function",
      "signature": "0xcd4558fd"
    },
    {
      "constant": false,
      "inputs": [],
      "name": "getBalanceOfCurrentAccount",
      "outputs": [
        {
          "name": "",
          "type": "uint256"
        }
      ],
      "payable": true,
      "stateMutability": "payable",
      "type": "function",
      "signature": "0xeba1877b"
    }
  ],
  "bytecode": "0x608060405234801561001057600080fd5b50336000806101000a81548173ffffffffffffffffffffffffffffffffffffffff021916908373ffffffffffffffffffffffffffffffffffffffff16021790555061044a806100606000396000f3fe608060405260043610610062576000357c0100000000000000000000000000000000000000000000000000000000900463ffffffff1680632f9c2ae914610067578063b69ef8a8146100f7578063cd4558fd14610122578063eba1877b1461017e575b600080fd5b34801561007357600080fd5b5061007c61019c565b6040518080602001828103825283818151815260200191508051906020019080838360005b838110156100bc5780820151818401526020810190506100a1565b50505050905090810190601f1680156100e95780820380516001836020036101000a031916815260200191505b509250505060405180910390f35b34801561010357600080fd5b5061010c61023a565b6040518082815260200191505060405180910390f35b6101646004803603602081101561013857600080fd5b81019080803573ffffffffffffffffffffffffffffffffffffffff169060200190929190505050610240565b604051808215151515815260200191505060405180910390f35b6101866103de565b6040518082815260200191505060405180910390f35b60028054600181600116156101000203166002900480601f0160208091040260200160405190810160405280929190818152602001828054600181600116156101000203166002900480156102325780601f1061020757610100808354040283529160200191610232565b820191906000526020600020905b81548152906001019060200180831161021557829003601f168201915b505050505081565b60035481565b600081600160006101000a81548173ffffffffffffffffffffffffffffffffffffffff021916908373ffffffffffffffffffffffffffffffffffffffff160217905550600160009054906101000a900473ffffffffffffffffffffffffffffffffffffffff1673ffffffffffffffffffffffffffffffffffffffff166108fc349081150290604051600060405180830381858888f193505050501580156102eb573d6000803e3d6000fd5b50346003819055507f41f7a8a1a70f43ecf6769f65a9933ba3370058d8e3422511a890553ba75ff3e8600160009054906101000a900473ffffffffffffffffffffffffffffffffffffffff166000809054906101000a900473ffffffffffffffffffffffffffffffffffffffff1634604051808473ffffffffffffffffffffffffffffffffffffffff1673ffffffffffffffffffffffffffffffffffffffff1681526020018373ffffffffffffffffffffffffffffffffffffffff1673ffffffffffffffffffffffffffffffffffffffff168152602001828152602001935050505060405180910390a160019050919050565b60008060009054906101000a900473ffffffffffffffffffffffffffffffffffffffff1673ffffffffffffffffffffffffffffffffffffffff163190509056fea165627a7a7230582012dfdf2ffba29546242c2d31372f3abcf5e39f3d43c222130d07bcd3752d80f10029",
  "source": "pragma solidity >=0.4.22 <0.6.0;\r\n\r\ncontract Payment { \r\n\r\n\r\n  address  transferFrom;\r\n  address payable transferTo; \r\n  string public remarks;\r\n  uint256 public  balance;\r\n\r\n  constructor() public {\r\n    transferFrom = msg.sender;\r\n  }\r\n\r\n  event TransferFund(address _transferTo, address _transferFrom, uint amount);\r\n\r\n  function transferFund( address payable _transferTo ) public payable returns (bool){\r\n      transferTo = _transferTo;\r\n      transferTo.transfer(msg.value);\r\n      balance = msg.value;\r\n      emit TransferFund(transferTo, transferFrom, msg.value);\r\n      return true;\r\n  }\r\n\r\n  function getBalanceOfCurrentAccount() public payable returns (uint) {\r\n    return transferFrom.balance;\r\n  }\r\n\r\n\r\n}\r\n",
  "sourcePath": "C:/Users/nadim/Desktop/github/ethdapp/contracts/Payment.sol",
  "compiler": {
    "name": "solc",
    "version": "0.5.0+commit.1d4f565a.Emscripten.clang"
  },
  "schemaVersion": "3.0.5",
  "updatedAt": "2019-03-30T14:31:23.476Z",
  "devdoc": {
    "methods": {}
  },
  "userdoc": {
    "methods": {}
  }
}